:020000020000FC
:0200000028C016
:0200040018954D
:02000800189549
:02000C00189545
:02001000189541
:0200140018953D
:02001800189539
:02001C00189535
:02002000189531
:02002400C3C057
:02002800189529
:02002C00189525
:02003000189521
:0200340018951D
:02003800A3C063
:02003C00189515
:02004000189511
:0200440018950D
:02004800189509
:02004C00189505
:1000500018950FE50DBF04E00EBF0FEF07BB08E0DA
:1000600008BB00E001BB08E002BB0FEF04BB00E0EF
:100070000ABB00EC07B906E006B999249927332496
:100080004424662733274427552720E072E37894D9
:100090001DD042D091FEFDCF1ED092FCF9CF839BA4
:1000A00001D0F6CF689492F8E89490FE689490F8A6
:1000B00007B1007E90FE08C023E0036007B905E0A9
:1000C00003BF01E009BF089520E0F8CF0EE806B9AC
:1000D0000EEC06B9089504E0083011F403E00BC0FB
:1000E000043011F402E007C0023011F401E003C053
:1000F000013031F010C0369447940A950030D9F79A
:100100003694479436944794042D132D3324442475
:1001100028D0E89491F808957A95A9F472E363954C
:10012000643009F46627E2E1F0E0E60F0081613017
:1001300059F0EEE4F1E0E00F049105BB06B306953B
:1001400008F408E008BB0895E8E5F1E0F4CF3F06C5
:100150005B4F666D7D077F6FBF86DBCFE6EDFD876A
:10016000FFEF332744275527045610F03395FCCF73
:100170000C590A5010F04395FCCF065F502F08959C
:100180000F931F930FB70F9304B115B1400E311E9B
:100190009395943039F00EEC06B90F910FBF1F9173
:1001A0000F9118959927689491F8F7CF0F930FB78F
:1001B0000F9383958E3149F4E89492F800E003BFE1
:1001C00009B7E89400F909BF88270F910FBF0F9175
:0201D000189580
:00000001FF
