:020000020000FC
:0200000028C016
:0200040018954D
:02000800189549
:02000C00189545
:02001000189541
:0200140018953D
:0200180082C1A3
:02001C00189535
:02002000189531
:020024000CC10D
:02002800189529
:02002C001BC1F6
:020030004DC1C0
:020034005AC1AF
:02003800189519
:02003C00189515
:02004000189511
:0200440018950D
:02004800189509
:02004C00189505
:1000500018950FE50DBF04E00EBF0FEF07BB08E0DA
:1000600008BB02E001BB0FEF02BB0FEF04BB0DE1C9
:1000700010E009B910BD00E90AB906E800BD00E0CA
:100080000FBD08E00EBD18ED00E01BBD0ABD72E318
:1000900066272224442455246624992721E0C0E7BA
:1000A000D0E000E017E009931A951030E1F7C0E6C0
:1000B000D0E000E014E009931A951030E1F7C8E6AB
:1000C000D0E000E013E009931A951030E1F7C0E6A4
:1000D000D0E0789433274427552731D021FC06C03F
:1000E00020FCFBCF8499F9CF16D0F7CFC79A47D021
:1000F00051D081D08AD0879B07C021D020FCFBCF74
:100100008499F9CF08D0F7CF08E20AB922FEFECFD2
:10011000E89422F8E2CF273009F420E0A0E7B0E02D
:1001200010E0A20FB11F0C917BD02395689420F8AA
:1001300005E003BF09B7689400F909BF08957A95EF
:10014000B9F472E36395643009F46627FF27E2E1AE
:10015000E60F0081E2E7F1E0E00F049105BB06B392
:1001600016B30F701078069508F408E0012B08BB51
:1001700008953F065B4F666D7D077F6F8000C0E688
:10018000D0E0A0E7B0E014E009910D93115009F020
:10019000FBCF08958824C0E6D0E00881013039F013
:1001A000023061F0033081F00430D1F0089509810C
:1001B0001A81010F10E0812E181DF8CF09811A81D4
:1001C000011B10E01040F2CF19810A8188E08824D9
:1001D00000FD810E869407958150D1F7182DE6CF4A
:1001E00019810A81101B10F08394FCCF0195101B1C
:1001F000012F182DDBCFC8E6D0E07724710E1993BC
:10020000700E0993709479920895C8E6D0E004E0E6
:1002100010E0A0E7B0E0A00FB11F13E0B5DF089534
:10022000332744275527045610F03395FCCF0C593B
:100230000A5010F04395FCCF065F502F08950F939E
:100240000FB70F939395933249F4E89420F800E0A8
:1002500003BF09B7E89400F909BF99270F910FBFB1
:100260000F9118950F931F930FB70F931BB10CB1FC
:1002700005C00F910FBF1F910F9118951C7109F0C8
:10028000F8CF09934394142D113021F0143051F01C
:10029000600EEFCF600E09B7689404F909BF09E05A
:1002A0000EBDE7CF0095061511F4689421F809B743
:1002B000E89404F909BF08E00EBD00E010E01DBDA0
:1002C0000CBD44246624C0E6D0E0D3CF0F930FB713
:1002D0000F9308E40AB9C8E6D0E00991E89421F840
:1002E0000CB90F910FBF0F9118950F930FB70F9384
:1002F0001F9305C01F910F910FBF0F911895539435
:10030000052D033019F009910CB9F4CF552400E9FB
:100310000AB9C0E6D0E0C798689422F8EBCF0F93F3
:100320001F930FB70F9308E00EBD09B7E89404F9C7
:1003300009BF10E000E01DBD0CBD44246624C0E6EA
:0C034000D0E00F910FBF1F910F91189596
:00000001FF
