:020000020000FC
:0200000028C016
:0200040065C0D5
:02000800189549
:02000C00189545
:02001000189541
:0200140018953D
:02001800189539
:02001C00189535
:02002000189531
:0200240018952D
:02002800189529
:02002C00189525
:02003000189521
:0200340018951D
:02003800189519
:02003C00189515
:02004000189511
:0200440018950D
:02004800189509
:02004C00189505
:1000500018950FE50DBF04E00EBF0FEF14E007BBCE
:1000600018BB0FEF04BB0BEF14E001BB12BB00E0A9
:100070001FEF0ABB1BBB02E005BF00E40BBF74E629
:10008000662781E0222733274427C0E6D0E0789412
:1000900001D0FECF7A95B1F474E66395633009F42C
:1000A0006627E2E1F0E0E60F0081E6ECF0E0E00F29
:1000B0000027F01F049105BB06B30770069508F4EE
:1000C00004E008BB08953F065B4F666D7D077F6FB8
:1000D0000F931F930FB70F9308D00FD000E40ABF00
:1000E0000F910FBF1F910F911895082F080F080F40
:1000F00015E0010F802F0993089522273327442705
:10010000045610F02395FCCF0C590A5010F033958B
:08011000FCCF065F402F0895AB
:00000001FF
