:020000020000FC
:0200000028C016
:0200040018954D
:02000800189549
:02000C00189545
:02001000189541
:0200140018953D
:02001800189539
:02001C00189535
:02002000189531
:0200240018952D
:02002800189529
:02002C00189525
:02003000189521
:0200340018951D
:02003800189519
:02003C00189515
:02004000189511
:0200440018950D
:02004800189509
:02004C00189505
:1000500018950FE514E00DBF1EBF2FEF2ABB23E05C
:100060002BBB20E027BB20E128BB30E0B499FECFBA
:100070003395343009F430E0E0EBF0E0E30F249105
:100080002BBB0ED0B49BFECF0BD0F0CF4BEA5AE186
:1000900062EF7EE94150504060407040D8F70895CB
:1000A00040E45FE160E0415050406040E0F7089577
:0400B00003060C0037
:00000001FF
